{
    "contractName": "add",
    "abi": [
        {
            "inputs": [
                {
                    "internalType": "uint256",
                    "name": "a",
                    "type": "uint256"
                },
                {
                    "internalType": "uint256",
                    "name": "b",
                    "type": "uint256"
                }
            ],
            "name": "addtwo",
            "outputs": [
                {
                    "internalType": "uint256",
                    "name": "",
                    "type": "uint256"
                }
            ],
            "stateMutability": "pure",
            "type": "function"
        }
    ],
    "bytecode": "608060405234801561001057600080fd5b5060db8061001f6000396000f3fe6080604052348015600f57600080fd5b506004361060285760003560e01c806302dedbe414602d575b600080fd5b603c6038366004605f565b604e565b60405190815260200160405180910390f35b6000605882846080565b9392505050565b60008060408385031215607157600080fd5b50508035926020909101359150565b6000821982111560a057634e487b7160e01b600052601160045260246000fd5b50019056fea26469706673582212204168839072d93d6e071282c97260e2e643c8b06b9164ec8b464544e7fe2bde4c64736f6c63430008070033",
    "sourcePath": "d:/Solidity_Study/solidity_Example/add.sol",
    "compiler": {
        "name": "solc",
        "version": "0.8.7+commit.e28d00a7"
    },
    "functionHashes": {
        "addtwo(uint256,uint256)": "02dedbe4"
    },
    "gasEstimates": {
        "creation": {
            "codeDepositCost": "43800",
            "executionCost": "93",
            "totalCost": "43893"
        },
        "external": {
            "addtwo(uint256,uint256)": "352"
        }
    }
}