{
    "contractName": "div",
    "abi": [
        {
            "inputs": [
                {
                    "internalType": "uint256",
                    "name": "a",
                    "type": "uint256"
                },
                {
                    "internalType": "uint256",
                    "name": "b",
                    "type": "uint256"
                }
            ],
            "name": "divtwo",
            "outputs": [
                {
                    "internalType": "uint256",
                    "name": "",
                    "type": "uint256"
                }
            ],
            "stateMutability": "pure",
            "type": "function"
        }
    ],
    "bytecode": "608060405234801561001057600080fd5b5060ee8061001f6000396000f3fe6080604052348015600f57600080fd5b506004361060285760003560e01c8063ff3c59c014602d575b600080fd5b603c60383660046073565b604e565b60405190815260200160405180910390f35b600081831115606557605f82846094565b9050606d565b605f83836094565b92915050565b60008060408385031215608557600080fd5b50508035926020909101359150565b60008282101560b357634e487b7160e01b600052601160045260246000fd5b50039056fea264697066735822122047cf9b7b51175f75880edfaebe2468b27863365466c038cb1f5efbdae53c179c64736f6c63430008070033",
    "sourcePath": "d:/Solidity_Study/solidity_Example/div.sol",
    "compiler": {
        "name": "solc",
        "version": "0.8.7+commit.e28d00a7"
    },
    "functionHashes": {
        "divtwo(uint256,uint256)": "ff3c59c0"
    },
    "gasEstimates": {
        "creation": {
            "codeDepositCost": "47600",
            "executionCost": "99",
            "totalCost": "47699"
        },
        "external": {
            "divtwo(uint256,uint256)": "390"
        }
    }
}